:100000000C942A000C943C000C943C000C943C0092
:100010000C943C000C943C000C943C000C943C0070
:100020000C943C000C943C000C943C000C943C0060
:100030000C943C000C943C000C943C000C943C0050
:100040000C9427010C943C000C943C000C943C0054
:100050000C943C0011241FBECFE5D8E0DEBFCDBF1D
:1000600020E0A0E6B0E001C01D92A836B207E1F79B
:100070000E943E000C9441010C940000B89AB99A79
:10008000A29AA39AA49AA59AA69AA79AD098D19828
:100090008AB38ABB86B1876086B93E9A3D9A379A01
:1000A000339A7894369A8091620090916300019619
:1000B0002091600030916100820F931F9093630044
:1000C00080936200843691050CF482C050916500E3
:1000D000252F24602093650040916400242F246024
:1000E00020936400883C91050CF472C03091670045
:1000F000232F206120936700242F2B7F20622093E1
:1001000064008C3221E092070CF462C0232F20633C
:10011000209367004B7D4093640020916600622F1E
:10012000646060936600803961E096070CF450C00B
:10013000632F686360936700843F71E097072CF436
:100140002B7F28602093660043C0237F622F60616D
:1001500060936600652F6C60609365008835E2E00F
:100160009E07B4F1642F606160936400652F677F20
:10017000762F7460709365008C3BF2E09F0724F447
:100180003C633093670024C03B7F38633093670043
:10019000646360936500803233E09307CCF02063A2
:1001A00020936600577E54625093650048614093E7
:1001B00064008235934064F01092630010926200F4
:1001C0001092670010926600109265001092640011
:1001D00080E090E0EFE3FFE13197F1F700C000002D
:1001E000009739F4AE9835B320916700232B25BBD7
:1001F0000BC0AE9A8130910539F4AF9835B3209198
:100200006600232B25BB0BC0AF9A8230910539F4D1
:10021000C19835B320916500232B25BB0BC0C19A33
:100220008330910539F4C09835B320916400232BB5
:1002300025BB01C0C09AEFE9FFE03197F1F700C09C
:10024000000015BA01968430910521F62CCF1F923B
:100250000F920FB60F9211248F939F9385B190E068
:10026000689413F8959587951694E1F7909361003B
:10027000809360009F918F910F900FBE0F901F9001
:060280001895F894FFCF71
:00000001FF
